:1000000014C1000040C100003EC100003CC100001E
:100010003AC1000038C1000036C1000034C1000000
:1000200032C1000030C100002EC100002CC1000010
:100030002AC1000028C1000026C1000024C1000020
:1000400022C1000020C100001EC100001CC1000030
:100050001AC1000018C1000016C10000E8C200006B
:1000600012C1000057C300002CC300000CC10000E7
:100070000AC1000008C1000006C1000004C1000060
:1000800002C1000000C10000FEC00000FCC0000072
:10009000FAC00000F8C00000F6C00000F4C0000084
:1000A000F2C00000F0C00000EEC00000ECC0000094
:1000B000EAC00000E8C00000E6C00000E4C00000A4
:1000C000E2C00000E0C00000DEC00000DCC00000B4
:1000D000DAC00000D8C00000D6C00000D4C00000C4
:1000E000D2C000006F017201610165016901A901BF
:1000F00076017A018001840188018E0192019601C6
:10010000A9019C01A001A4010000210024002700F6
:100110002A002D0030003300010100000401070116
:100120000A01000020002300260029002C002F00D7
:100130003200000100000301060109010000220055
:10014000250028002B002E003100340002010000A1
:10015000050108010B010505050507050808080844
:10016000020202020A0A080804040404010101014F
:10017000010101010303030303030303040707074A
:100180000C0C0C0C0C0C0C0C0202020206060606EF
:10019000060606060B0B0B0B0B0B0B0B01021020BC
:1001A00020080810204010204080020102010804AD
:1001B0000201010204081020408080402010080441
:1001C000020180040201804020100804020108049A
:1001D00002010102040810204080010204081020DE
:1001E000408000000A0B02090C0D0E0807030401F1
:1001F00000000000000000000000000000000000FF
:1002000000000000000000000000000000001211CB
:1002100010000000000000000000000000000000CE
:1002200000000000000000006F0511241FBECFEF8A
:10023000D1E2DEBFCDBF00E00CBF12E0A0E0B2E033
:10024000E0EDFBE000E00BBF02C007900D92A6318D
:10025000B107D9F722E0A6E1B2E001C01D92AC3BA4
:10026000B207E1F711E0C5E1D1E000E005C0219758
:100270000109802FFE019ED4C431D10780E0080718
:10028000B1F7C3D2A3C4BCCECF93C82FE4EEF1E044
:100290004491EEE9F1E02491E8E5F1E094919923AD
:1002A00009F46AC0442309F454C050E0FA013197BC
:1002B000E231F10508F04DC08827EE58FF4F8F4F0F
:1002C00079C4809180008F7707C0809180008F7DF6
:1002D00003C080918000877F809380003AC084B5FE
:1002E0008F7702C084B58F7D84BD33C08091B0000C
:1002F0008F7703C08091B0008F7D8093B00029C0BC
:10030000809190008F7707C0809190008F7D03C00F
:1003100080919000877F809390001BC08091A00007
:100320008F7707C08091A0008F7D03C08091A000CF
:10033000877F8093A0000DC0309120013F7707C0D8
:10034000309120013F7D03C030912001377F3093F1
:100350002001E92FF0E0EE0FFF1FE45CFE4FA591B6
:10036000B4918FB7F894EC91C11103C020952E235E
:1003700001C02E2B2C938FBFCF9108953FB7F894D7
:1003800080911B0290911C02A0911D02B0911E024F
:1003900026B5A89B05C02F3F19F00196A11DB11DE0
:1003A0003FBFBA2FA92F982F8827820F911DA11D1B
:1003B000B11DBC01CD0142E0660F771F881F991F58
:1003C0004A95D1F70895CF92DF92EF92FF920F9363
:1003D0001F93CF93DF936C017A018B01C0E0D0E0D3
:1003E000CE15DF0589F0D8016D918D01D601ED9113
:1003F000FC910190F081E02DC6011995892B11F433
:100400007E0102C02196ECCFC701DF91CF911F91F1
:100410000F91FF90EF90DF90CF900895FC01918DA8
:10042000828D981761F0828DDF01A80FB11D5D9656
:100430008C91928D9F5F9F73928F90E008958FEFC4
:100440009FEF0895FC01918D828D981731F0828D78
:10045000E80FF11D858D90E008958FEF9FEF0895CF
:10046000FC01918D228D892F90E0805C9F4F821B33
:1004700091098F73992708958FE192E0F1DF21E0D0
:10048000892B09F420E0822F0895FC01848DDF017F
:10049000A80FB11DA35ABF4F2C91848D90E00196F7
:1004A0008F739927848FA689B7892C93A089B189E6
:1004B0008C9180648C93938D848D981306C00288F0
:1004C000F389E02D80818F7D80830895EF92FF92E4
:1004D0000F931F93CF93DF93EC0181E0888F9B8D67
:1004E0008C8D981305C0E889F989808185FD23C02A
:1004F000F62E0B8D10E00F5F1F4F0F731127E02EAC
:100500008C8DE8120BC00FB607FCFACFE889F98989
:10051000808185FFF5CFCE01B8DFF2CF8B8DFE0154
:10052000E80FF11DE35AFF4FF0820B8FEA89FB8938
:100530008081806207C0EE89FF896083E889F9893C
:1005400080818064808381E090E0DF91CF911F9172
:100550000F91FF90EF900895CF93DF93EC01888D7A
:100560008823C1F0EA89FB89808185FD05C0A889BF
:10057000B9898C9186FD0EC00FB607FCF5CF80813E
:1005800085FFF2CFA889B9898C9185FFEDCFCE0187
:100590007CDFE8CFDF91CF91089580E090E0892B58
:1005A00019F06ADF811125C080E090E0892B41F0CD
:1005B00080E090E0892B21F00E94000081111CC096
:1005C00080E090E0892B41F080E090E0892B21F0E1
:1005D0000E940000811113C080E090E0892BA1F0FF
:1005E00080E090E0892B81F00E94000081110AC018
:1005F00008950E940000D8CF0E940000E1CF0E9421
:100600000000EACF0C9400000895009761F0FC010F
:1006100001900020E9F73197AF01481B590BBC014D
:100620008FE192E0D0CE80E090E00895CBD21F928F
:100630000F920FB60F9211242F933F938F939F9396
:10064000AF93BF938091170290911802A091190265
:10065000B0911A023091160223E0230F2D3720F4B7
:100660000196A11DB11D05C026E8230F0296A11D0C
:10067000B11D209316028093170290931802A09345
:100680001902B0931A0280911B0290911C02A09152
:100690001D02B0911E020196A11DB11D80931B0287
:1006A00090931C02A0931D02B0931E02BF91AF91C4
:1006B0009F918F913F912F910F900FBE0F901F90A0
:1006C00018951F920F920FB60F9211240BB60F922E
:1006D0002F933F934F935F936F937F938F939F934A
:1006E000AF93BF93EF93FF938FE192E0CEDEFF9144
:1006F000EF91BF91AF919F918F917F916F915F919A
:100700004F913F912F910F900BBE0F900FBE0F9006
:100710001F9018951F920F920FB60F9211240BB6CF
:100720000F922F938F939F93EF93FF93E0912F025C
:10073000F09130028081E0913502F091360282FD25
:1007400012C09081809138028F5F8F73209139029F
:10075000821751F0E0913802F0E0E15EFD4F958F95
:100760008093380201C08081FF91EF919F918F911A
:100770002F910F900BBE0F900FBE0F901F901895EA
:10078000CF92DF92EF92FF920F931F93E82FF92FF2
:1007900005C0015011092109310961F190819623A9
:1007A0009417B9F305C0015011092109310911F15C
:1007B000908196239413F7CFC12CD12CE12CF12CEE
:1007C0000AC08FEFC81AD80AE80AF80A0C151D05E6
:1007D0002E053F0579F080818623841791F36C2DD7
:1007E0007D2D8E2D9F2D1F910F91FF90EF90DF900B
:1007F000CF90089560E070E080E090E01F910F914D
:10080000FF90EF90DF90CF900895CF93DF93CDB717
:10081000DEB7A1970FB6F894DEBF0FBECDBF7894B8
:1008200084B5826084BD84B5816084BD85B58260F5
:1008300085BD85B5816085BD80916E0081608093A6
:100840006E0010928100809181008260809381000F
:10085000809181008160809381008091800081601F
:10086000809380008091B10084608093B10080917A
:10087000B00081608093B00080919100826080938D
:10088000910080919100816080939100809190000F
:100890008160809390008091A10082608093A1008C
:1008A0008091A10081608093A1008091A00081606F
:1008B0008093A0008091210182608093210180912A
:1008C00021018160809321018091200181608093CA
:1008D000200180917A00846080937A0080917A0070
:1008E000826080937A0080917A00816080937A00A0
:1008F00080917A00806880937A001092C100E09124
:100900002F02F091300282E08083E0912B02F0917F
:100910002C021082E0912D02F0912E028FEC808348
:1009200010923702E0913302F091340286E0808326
:10093000E0913102F0913202808180618083E09108
:100940003102F0913202808188608083E09131022F
:10095000F0913202808180688083E0913102F091D1
:10096000320280818F7D80835FE0252E312C6AE307
:10097000462E512C612C712CEEE9F1E02491E8E532
:10098000F1E08491882399F090E0880F991FFC0191
:10099000E85FFE4FA591B491FC01E45CFE4F8591A8
:1009A00094918FB7F8949C91292B2C938FBF80E062
:1009B0006BDC83E090E00197F1F781E065DCC10139
:1009C0000197F1F780E060DCEEE9F1E02491E8E5E1
:1009D000F1E084918823C9F090E0880F991FFC0111
:1009E000E85FFE4FA591B491FC01E45CFE4F459198
:1009F00054913FB7F8949C91822F809598239C93B3
:100A0000FA019081892380833FBFEEE9F1E0649190
:100A1000E8E5F1E08491E82FF0E0EE0FFF1FEE5DD6
:100A2000FE4F8591949100E412E42FE030E0462FD0
:100A3000A7DE611571058105910549F0DC01CB0147
:100A40000196A11DB11DBC01CD019F7003C060E0E6
:100A500070E0CB01A301920191D019A2CE01819641
:100A60007C01CA01B9012AE030E040E050E064D0E6
:100A7000605DF70162937F01211531054105510544
:100A800081F7CF01C2DD80E192E0BFDD83E192E03A
:100A9000BCDD74DC4B015C0184E6C82ED12CE12C5A
:100AA000F12C6CDCDC01CB0188199909AA09BB097E
:100AB000883E9340A105B10558F0F1E0CF1AD10866
:100AC000E108F10828EE820E23E0921EA11CB11C61
:100AD000C114D104E104F10421F75FDD4DCFEFE152
:100AE000F2E01382128288EE93E0A0E0B0E084830B
:100AF0009583A683B78384E092E09183808385EC1D
:100B000090E09587848784EC90E09787868780ECD7
:100B100090E0918B808B81EC90E0938B828B82ECC8
:100B200090E0958B848B86EC90E0978B868B118E72
:100B3000128E138E148E0895A1E21A2EAA1BBB1BCF
:100B4000FD010DC0AA1FBB1FEE1FFF1FA217B30799
:100B5000E407F50720F0A21BB30BE40BF50B661FAF
:100B6000771F881F991F1A9469F760957095809573
:100B700090959B01AC01BD01CF010895052E97FB17
:100B800016F400940FD057FD05D0D6DF07FC02D035
:100B900046F408C050954095309521953F4F4F4FF2
:100BA0005F4F089590958095709561957F4F8F4F19
:100BB0009F4F0895EE0FFF1F881F8BBF0790F69180
:100BC000E02D199481E090E0F89400C0F894FFCFF4
:100BD000000000006602E30130020E022202AC02B5
:060BE000636D000D0A0028
:00000001FF
